S026000056616E6E656D616E5F46726F676765725F66697273745F617474656D70742E73726563BA
S11300000C94FE000C941B010C941B010C941B011A
S11300100C941B010C9458010C941B010C941B01AF
S11300200C941B010C941B010C941B010C941B01DC
S11300300C941B010C941B010C941B010C941B01CC
S11300400C94220E0C941B010C941B010C941B01A8
S11300500C94C70C0C94850C0C941B010C941B0180
S11300600C941B010C941B010C941B010C941B019C
S11300700C941B010C941B010C941B010B02BE017C
S1130080BE01BE010B02DE01DE01FE018303860315
S11300908603860383038A038A038E034C6576658D
S11300A06C2025640025640053636F72653A005028
S11300B072657373206120627574746F6E20746F3F
S11300C020737461727420616761696E0047414DE9
S11300D045204F564552004353534532303130206A
S11300E070726F6A65637420627920526562656319
S11300F063612056616E6E656D616E0046726F6756
S113010067657220627920343632353838333900E5
S11301107B017801740170016C0168016401600164
S11301205C015801EA01E601E201DE01DA01D601CF
S1130130D201CE01CB01C701C301BF01BA01B6018F
S1130140B201AE01A901A501A1019C01980193018D
S11301508E01890184017F016492927D6C92926D7B
S1130160809EA0C17C92924DE4A2A29D182848FFD3
S11301704492926D468A926342FE037C92A27D86EB
S11301808A92A2C3E0100E10E1C6281028C7FC0210
S11301901C02FDF8040204F9FC0202FD8080FE80CA
S11301A0816492924DFE9098677C828A7C03FE90D3
S11301B090617C82827DFE2010FFFE403040FFFE75
S11301C0020203FE1028C7040202FD82FE83FE1011
S11301D010FF7C82925DFE909081FE929283FE825B
S11301E0827D7C828245FE92926D7E90907F1B5B25
S11301F0324A001B5B25643B2564480011241FBE62
S1130200CFEFD8E0DEBFCDBF11E0A0E0B1E0E0EA7F
S1130210F5E202C005900D92A435B107D9F722E0AA
S1130220A4E5B1E001C01D92A43BB207E1F70E942E
S1130230C90A0C94CE120C940000E8E6F0E0808128
S113024082608083D99AECE6F0E080818F608083BD
S11302501092540108958091540118163CF5809130
S113026055016FB7F894909154019230B4F021E0A5
S113027030E091E0F901EB5AFE4F4081F901EC5A6C
S1130280FE4F40839F5F292F30E040915401042E9C
S1130290000C550B241735076CF3909154019150C1
S11302A09093540166231CF4789408958FEF089575
S11302B01F920F920FB60F9211242F933F934F93D7
S11302C05F936F937F938F939F93EF93FF9343B1C8
S11302D04F7080E090E0642F70E02091540124304E
S11302E004F59B01082E02C0359527950A94E2F780
S11302F020FF17C02091590130E0082E02C0359527
S113030027950A94E2F720FD0CC0E091540121E006
S11303102E0F209354010E2E000CFF0BEB5AFE4FB0
S11303208083019684309105C1F640935901FF9171
S1130330EF919F918F917F916F915F914F913F9139
S11303402F910F900FBE0F901F9018958091590117
S113035008950F93262F603108F05BC0482F082EB4
S1130360000C550B660B770B4830510528F4FA0145
S1130370E25CFF4F0C94720F81E04EC08150E82F75
S1130380F0E0DF01A05ABE4F0C91020F003408F0D8
S11303900054EE0FFF1FEE0FFF1FEE0FFF1FE05E76
S11303A0FE4F208131814281538164817581868130
S11303B097810E947A0F822F81702EC0855090E021
S11303C0FC01E25AFE4F6081260F203208F02052D1
S11303D0880F991F880F991FFC01E85EFE4F8081EA
S11303E09181A281B38104C0B695A795979587950D
S11303F02A95D2F721E0822781700EC080915A019C
S113040090915B0102C0969587952A95E2F78170D9
S113041003C081E001C080E00F910895CF93DF9382
S1130420CDB7DEB760970FB6F894DEBF0FBECDBF71
S1130430FE0131969E012F5E3F4F91E19193E217A9
S1130440F307E1F7BE016F5F7F4F0E94BE0660961F
S11304500FB6F894DEBF0FBECDBFDF91CF910895E4
S11304603F924F925F926F927F928F929F92AF9240
S1130470BF92CF92DF92EF92FF920F931F93CF938D
S1130480DF93CDB7DEB760970FB6F894DEBF0FBE2B
S1130490CDBF482E282F30E0F901E05AFE4FE0810D
S11304A0C901880F991F880F991F880F991F805EB3
S11304B09E4FDC015C9011966C90119712967C9083
S11304C0129713968C90139714969C9014971596E4
S11304D01C91159716963C9016971796FC91CE0191
S11304E001967C016E0191E1C90ED11CD901A05085
S11304F0BF4F5D01252D362D472D582D692D712FA8
S1130500832D9F2F0E2F0E947A0F217030E040E040
S113051050E060E070E080E090E0A0E00E94960F80
S113052029F0D5018C91D7018C9302C0D7011C927C
S1130530EF5FE03408F0E0E0BFEFEB1AFB0AEC14E5
S1130540FD04C1F6BE016F5F7F4F81E0840D0E9400
S1130550BE0660960FB6F894DEBF0FBECDBFDF9126
S1130560CF911F910F91FF90EF90DF90CF90BF90AC
S1130570AF909F908F907F906F905F904F903F903F
S11305800895CF92DF92EF92FF92CF93DF93CDB78E
S1130590DEB760970FB6F894DEBF0FBECDBF282F2D
S11305A030E0F901E25AFE4F9081220F331F220FEF
S11305B0331FF901E85EFE4FC080D180E280F380F2
S11305C0FE0131969E012F5E3F4FACE3B701A601B9
S11305D0092E04C076956795579547950A94D2F7E6
S11305E040FF02C0A08301C010829F5F903208F0D8
S11305F090E03196E217F30749F7BE016F5F7F4F32
S11306008B5F0E94BE0660960FB6F894DEBF0FBEE5
S1130610CDBFDF91CF91FF90EF90DF90CF90089501
S1130620EF92FF920F931F93CF93DF93CDB7DEB773
S113063060970FB6F894DEBF0FBECDBFA0915C01EA
S1130640B0915D01E0905A01F0905B01AE014F5F03
S11306505F4FBE016F5E7F4FFA0100EF11E1CF01E2
S1130660841B950B9D01082E02C0369527950A948C
S1130670E2F720FF02C010830BC0970102C0369539
S113068027958A95E2F720FF02C0008301C01082FB
S11306903196E617F70719F7BE016F5F7F4F87E0C2
S11306A00E94BE0660960FB6F894DEBF0FBECDBFA3
S11306B0DF91CF911F910F91FF90EF9008950E94C9
S11306C0FF0680E00E940E0284E00E940E0280E099
S11306D00E94300281E00E94300282E00E943002D7
S11306E080E00E94C10281E00E94C1020E941003C6
S11306F00895482F50E04830510590F4FA01EA5B20
S1130700FF4F0C94720F0E940E02089581500E94B4
S11307103002089585500E94C10208950E9410037A
S1130720089580916501882341F045E36091670154
S1130730809166010E949F06089580916301882339
S113074041F045E360916701809166010E949F0634
S1130750089540EF60916701809166010E949F06B1
S1130760089560FF0DC023E030E040E050E00E94B7
S1130770310F672B682B692B31F08DED9DED0895BA
S11307808DED95ED08958DE595ED08951092670131
S113079087E080936601109265010E949103089599
S11307A060FD0BC0E0E6F1E081E082838183808319
S11307B0EEE5F1E0118210821EC023E030E040E05B
S11307C050E00E94310F672B682B692B59F4E0E647
S11307D0F1E0128211821082EEE5F1E081E0818382
S11307E0808309C0E0E6F1E0128211821082EEE516
S11307F0F1E0118210820E94100380E00E940E0238
S113080084E00E940E0280E00E94300281E00E9497
S1130810300282E00E94300280E00E94C10281E046
S11308200E94C102109263010E94C603089581E0F0
S113083020915A0130915B012F3F3F4F09F080E036
S1130840089581E090916701973009F080E0089560
S113085080916501089580916301089580916401F8
S1130860843031F483E08093640187E082B9089591
S1130870833031F482E08093640183E082B9089587
S1130880823029F481E08093640182B90895815013
S11308908093640181E08093650112B80895CF9339
S11308A0809167010E947903C0916701CF5F6091D5
S11308B066018C2F0E94A9018093630181110E941B
S11308C02E04C0936701C73029F48AE090E00E94A7
S11308D0DD0A04C081E090E00E94DD0A0E949103D9
S11308E08091650181111BC080916301811117C042
S11308F080916701873099F481E090E0009066016F
S113090002C0880F991F0A94E2F720915A0130918E
S11309105B01822B932B90935B0180935A01CF91BF
S11309200895CF93809167010E947903C091670174
S1130930C150609166018C2F0E94A90180936301CC
S113094081110E942E04C09367010E94910380913B
S1130950650181111BC080916301811117C08091D1
S11309606701873099F481E090E00090660102C04D
S1130970880F991F0A94E2F720915A0130915B0184
S1130980822B932B90935B0180935A01CF9108950E
S1130990CF93809167010E947903C0916601C15091
S11309A06C2F809167010E94A901809363018111DA
S11309B00E942E04C09366010E94910380916501F8
S11309C081111BC080916301811117C0809167015F
S11309D0873099F481E090E00090660102C0880FAE
S11309E0991F0A94E2F720915A0130915B01822BFE
S11309F0932B90935B0180935A01CF910895CF93E9
S1130A00809167010E947903C0916601CF5F6C2FCA
S1130A10809167010E94A9018093630181110E9462
S1130A202E04C09366010E94910380916501811197
S1130A301BC080916301811117C0809167018730C9
S1130A4099F481E090E00090660102C0880F991F3C
S1130A500A94E2F720915A0130915B01822B932B87
S1130A6090935B0180935A01CF9108958091640122
S1130A70833031F484E0809364018FE082B9089577
S1130A80823031F483E08093640187E082B9089571
S1130A90813029F482E08093640183E082B908956F
S1130AA0CF92DF92EF92FF920F931F93CF93DF9336
S1130AB0C62F072F182FD92F0E947E0D6B017C01A2
S1130AC060EF86E191E00E94FB0A16C02FE789EAF5
S1130AD093E0215080409040E1F700C000000E9464
S1130AE07E0DDC01CB01885E9340A109B1098C1510
S1130AF09D05AE05BF0520F40E940A0B8111E6CFC7
S1130B00C0FD12C0E0E6F1E081E08283818380834E
S1130B10EEE5F1E011821082E0E0F1E08FED8283F6
S1130B2080838FE0818330C06C2F702F812F9D2FA5
S1130B3023E030E040E050E00E94310F672B682B47
S1130B40692B91F4E0E6F1E0128211821082EEE565
S1130B50F1E081E081838083E0E0F1E08FE0828353
S1130B6081838FED808310C0E0E6F1E01282118270
S1130B701082EEE5F1E011821082E0E0F1E08FE016
S1130B80828380838FED81830E9436056C2F702FC2
S1130B90812F9D2F0E94B10390935D0180935C018E
S1130BA090935B0180935A010E945F030E94C603E5
S1130BB0DF91CF911F910F91FF90EF90DF90CF9035
S1130BC0089581B18F6081B987E082B90895E0E624
S1130BD0F1E0128211821082EEE5F1E011821082BE
S1130BE0E0E0F1E08FE0828380838FED81838DEDFF
S1130BF09DED90935D0180935C0190935B018093E4
S1130C005A010E945F0383E0809364010E94E1051E
S1130C100E94C60308950F931F93CF93DF93C0914F
S1130C2067010C2E000CDD0B282F30E089010F5FCB
S1130C301F4FF901E05AFE4F9081961B32F4F901DF
S1130C40E05AFE4F9FE390830BC090342CF4F901DB
S1130C50E05AFE4F908304C0F901E05AFE4F10821F
S1130C600E943002C017D10769F460916601809137
S1130C7067010E94A9018093630181110E942E04DF
S1130C800E949103DF91CF911F910F910895CF920C
S1130C90DF92EF92FF920F931F93CF93DF93D82E9F
S1130CA0C62E00916701002E000C110BC82FD0E056
S1130CB07E0185E0E80EF11C0E151F05C9F481E0E4
S1130CC0681307C0809166018F3069F40E942E0476
S1130CD00FC08FEF681307C080916601811103C0B4
S1130CE00E942E0405C0809166018C0D80936601DC
S1130CF0FE01E25AFE4F80818C191AF48FE1808341
S1130D0009C0803224F4C25ADE4F888303C0C25A19
S1130D10DE4F18828D2D0E94C1020E151F0511F49D
S1130D200E949103DF91CF911F910F91FF90EF905B
S1130D30DF90CF90089580E80E941A0D08951F93C4
S1130D40CF93DF938031B0F46830A0F4142FC62F12
S1130D50D82F81E00E94420D6C2F677080E1689F5C
S1130D60900111248D2F8F70822B0E94420D812FB0
S1130D700E94420DDF91CF911F9108950F931F930D
S1130D80CF93DF93883090F48B01C82F82E00E94C8
S1130D90420D8C2F87700E94420DE801005F1F4FA7
S1130DA089910E94420DC017D107D1F7DF91CF91ED
S1130DB01F910F9108950F931F93CF93DF93803169
S1130DC090F48B01C82F83E00E94420D8C2F8F700A
S1130DD00E94420DE801085F1F4F89910E94420D55
S1130DE0C017D107D1F7DF91CF911F910F910895CB
S1130DF084E00E94420D82E00E94420D08958FE03B
S1130E000E94420D08950E949B060E941D0140E02D
S1130E1060E07BE480E090E00E94320C0E94620D6E
S1130E20789408950E94590D6AE070E08AE090E099
S1130E300E94480D8CEF90E09F938F930E94E00FE7
S1130E406CE070E08AE090E00E94480D87ED90E04D
S1130E509F938F930E94E00F0E94FF060F900F90C4
S1130E600F900F9060EF88E391E00E94FB0A0DC0A1
S1130E702FE789EA93E0215080409040E1F700C0D9
S1130E8000000E942B018F3F29F40E940A0B81115C
S1130E90EFCFE8CF08956EE070E08AE090E00E9422
S1130EA0480D8DEC90E09F938F930E94E00F6FE0CC
S1130EB070E08AE090E00E94480D8FEA90E09F93F2
S1130EC08F930E94E00F0F900F900F900F900E944D
S1130ED02B018F3FE1F30895CF92DF92EF92FF92BF
S1130EE00E94590D62E070E08EE190E00E94480D8E
S1130EF088EA90E09F938F930E94E00F0E94F20A89
S1130F006B017C010F900F906A3071053CF462E034
S1130F1070E088E290E00E94480D25C0CB010B9759
S1130F208935910538F462E070E087E290E00E9430
S1130F30480D19C0C601855691098338934038F489
S1130F4062E070E086E290E00E94480D0CC0C601A9
S1130F50895E93408732934230F462E070E085E228
S1130F6090E00E94480DDF92CF9285EA90E09F9333
S1130F708F930E94E00F0F900F900F900F90FF90AF
S1130F80EF90DF90CF9008950F931F93CF93DF934B
S1130F90C62FD72F182F092F63E070E08EE190E061
S1130FA00E94480D0F931F93DF93CF938CE990E039
S1130FB09F938F930E94E00F0F900F900F900F90CC
S1130FC00F900F90DF91CF911F910F9108950E9480
S1130FD0E7050E94590D0E94D40A0E946C0761E043
S1130FE070E080E090E00E94C4070E94E1050E9446
S1130FF02B010E94800C08950F931F938091680128
S11310008130E9F40E947E0D0091690110916A011A
S113101020916B0130916C01DC01CB01801B910BA1
S1131020A20BB30B80936D0190936E01A0936F019B
S1131030B0937001109268010E94A90D0FC00E9424
S11310407E0D6093690170936A0180936B019093A4
S11310506C0181E0809368010E94A90D1F910F919A
S113106008952F923F924F925F926F927F928F9248
S11310709F92AF92BF92CF92DF92EF92FF920F9323
S11310801F93CF93DF9300D000D01F92CDB7DEB76C
S11310900E948C0D0E947E0D2B013C011D821C823E
S11310A0812C912C540183941B82212C312C198284
S11310B01A822EC20E94A60D882369F00E942E0473
S11310C00E942804811125C0C501B4010E94D003E7
S11310D00E948C0D1EC00E94280481111AC00E9417
S11310E017048823B1F00E940A0B3FEF831A930A76
S11310F0A30AB30AC501B4010E945005C501B40195
S11311000E94C4070E948C0D8C819D81C2969D8390
S11311108C830E94280481110DC00E942B0481112C
S113112009C00E942104882329F00E94C6030E945A
S11311308C0D0EC00E942B04882351F00E942804B9
S1131140811106C0C501B4010E94D0030E948C0D18
S11311500E942B01082F8F3F11F50E94790C8823E0
S113116001F1EEEAF2E0808191810E94A20F182F32
S1131170FB81F11106C08B31B9F421E02B831FEF01
S113118013C03B81313031F48B3569F482E08B83B9
S11311901FEF0AC09B81923009F4C0C1CAC11FEF7E
S11311A003C01FEF01C01B820E94A601809391011E
S11311B0809168018111CBC1033081F08FEF08C0A9
S11311C0143459F0812F1B821FEF02C01B828FEF52
S11311D0912F9F7D9C3489F401C01B820E94C80416
S11311E00E947E0D60939201709393018093940109
S11311F0909395011092910190C0023031F08134A6
S113120021F0912F9F7D9535A9F40E944F040E94EF
S11312107E0D609392017093930180939401909357
S11312209501109291010E946C07C501B4010E94BE
S1131230C40773C0013021F0823411F0943479F47E
S11312400E9491040E947E0D609392017093930119
S11312508093940190939501109291015EC00023B4
S113126029F0833419F0923509F076C10E94FF0405
S11312700E947E0D60939201709393018093940178
S1131280909395011092910148C01B820E94FC0723
S113129044C0811141C01B820E947E0DDC01CB0140
S11312A08C529140A109B1090091920110919301CE
S11312B0209194013091950180179107A207B307FB
S11312C060F180919101E3E0F1E09081981303C013
S11312D00E94FF0414C090910401891303C00E946A
S11312E091040DC090910501891303C00E944F041D
S11312F006C090910601891302C00E94C8040E948E
S11313007E0D609392017093930180939401909366
S113131095011092910101C01B820E947E0D6B0108
S11313207C01809168018111BAC00E942804811156
S113133028C0F981F11125C080916D0190916E0151
S1131340A0916F01B0917001B701A601481B590B20
S11313506A0B7B0BD301C20182519D4FAF4FBF4F2C
S11313602C813D81821B930BA109B10948175907B0
S11313706A077B0730F061E082E00E940B0631E0EF
S11313803983809168018111C3C00E9428048111AE
S113139027C0311025C080916D0190916E01A091FC
S11313A06F01B0917001B701A601481B590B6A0B7C
S11313B07B0BD301C2018E5A9C4FAF4FBF4FEC81C0
S11313C0FD818E1B9F0BA109B109481759076A07B4
S11313D07B0730F06FEF80E00E944706332433949C
S11313E080916801811194C00E942804811128C051
S11313F0FA81F11125C080916D0190916E01A09147
S11314006F01B0917001B701A601481B590B6A0B1B
S11314107B0BD301C20188519C4FAF4FBF4F2C812E
S11314203D81821B930BA109B109481759076A072B
S11314307B0730F061E080E00E940B0631E03A83E4
S113144080916801811164C00E942804811127C021
S1131450211025C080916D0190916E01A0916F01C2
S1131460B0917001B701A601481B590B6A0B7B0BA5
S1131470D301C20180559B4FAF4FBF4FEC81FD811B
S11314808E1B9F0BA109B109481759076A077B07EF
S113149030F061E081E00E94470622242394809189
S11314A06801811135C00E942804811131C08091E6
S11314B06D0190916E01A0916F01B0917001B7011F
S11314C0A601481B590B6A0B7B0BD301C2018C5E2E
S11314D09A4FAF4FBF4F2C813D81821B930BA109C3
S11314E0B109481759076A077B0790F06FEF81E04D
S11314F00E940B0610926D0110926E0110926F0102
S11315001092700126013701212C312C19821A8284
S11315100E942804882309F4CDCD23C00E94A6018B
S11315208093910180916801882309F449CE1FEFCB
S113153009C00E94A60180939101809168018823CB
S113154009F444CE1F7D103509F0A3CE9ECE1F7D35
S1131550103509F0E2CE9ACE1F7D103509F09CCEED
S113156095CE0F900F900F900F900F90DF91CF9129
S11315701F910F91FF90EF90DF90CF90BF90AF90AD
S11315809F908F907F906F905F904F903F902F909F
S113159008950E9403070E9412070E94E7070E9411
S11315A031080E944B07F9CF1092960110929701CF
S11315B010929801109299010895409196015091CA
S11315C097016091980170919901480F591F611D0D
S11315D0711D409396015093970160939801709305
S11315E099010895609196017091970180919801F5
S11315F090919901089560930701909375018093E8
S11316007401109277011092760110927301109276
S1131610720108950F931F93CF93DF93CDB7DEB775
S113162028970FB6F894DEBF0FBECDBFE0917601C8
S1131630F0917701309781F0149110FF06C0109259
S113164077011092760100E06BC03196F093770138
S1131650E093760100E064C0E0917201F0917301BF
S1131660309709F449C0CF01019690937301809398
S11316707201E081E1110AC01092730110927201AB
S113168080E18093710100E010E04AC08FE98E0F81
S11316908A3170F4F0E0EE0FFF1FEE59FF4F859191
S11316A09491909377018093760100E010E038C024
S11316B08FEB8E0F8A3170F4F0E0EE0FFF1FEE55C2
S11316C0FF4F85919491909377018093760100E088
S11316D010E026C080ED8E0F8A3000F5F0E0EE0FAA
S11316E0FF1FE055FF4F859194919093770180936C
S11316F0760100E010E014C08091740190917501AE
S113170001E0009709F000E0909373018093720167
S1131710109275011092740110E002C000E010E014
S11317200E94F80620910701FE013896CE01019629
S1131730112314F4208301C01082110F3197E8178C
S1131740F907B1F71982BE016F5F7F4F8FE00E94E6
S1131750DB0680917101882389F0815080937101A7
S1131760002311F0882311F090E003C091E001C040
S113177091E081E0992329F080E003C00023A1F3E4
S1131780F7CF28960FB6F894DEBF0FBECDBFDF911A
S1131790CF911F910F910895CF93C82F8A3019F4D8
S11317A08DE00E94CC0B9FB7907802C0992329F159
S11317B080919B018F3FD1F3F894E0919A0181E0ED
S11317C08E0F80939A01F0E0E456FE4FC08380911F
S11317D09B018F5F80939B0180919A018F3F11F44D
S11317E010929A01E1ECF0E0808180628083992379
S11317F039F0789480E090E005C081E090E002C088
S113180080E090E0CF9108958091AD028823E1F3C8
S11318102FB72078F89480919B023091AD0290E02C
S1131820831B91095AF4E0919B028091AD02F0E090
S1131830E81BF109E455FD4F80810AC0E0919B0249
S11318408091AD02F0E0E81BF109E456FD4F808180
S11318509091AD0291509093AD02222309F07894B7
S113186090E0089510929A0110929B0110929B02AD
S11318701092AD021092AC0240937801DC01CB01CE
S1131880880F991FAA1FBB1F880F991FAA1FBB1F70
S11318909C01AD01220F331F441F551F60E072E10C
S11318A08AE790E00E94530FBA01A9014F5F5F4F8E
S11318B06F4F7F4FDB01CA011AF40196A11DB11DC0
S11318C0B595A7959795879501979093C5008093B3
S11318D0C400E1ECF0E088E180838081806880834B
S11318E0EEEAF2E088E091E093838283918380833F
S11318F008959091AD0281E0911101C080E00895B6
S113190010929B021092AD0208951F920F920FB68F
S11319100F9211242F938F939F93EF93FF938091B2
S11319209B01882329F180919A0120919B0190E0E9
S1131930821B91095AF4E0919A0180919B01F0E095
S1131940E81BF109E556FD4F90810AC0E0919A0128
S113195080919B01F0E0E81BF109E456FE4F908171
S113196080919B01815080939B019093C60005C098
S1131970E1ECF0E080818F7D8083FF91EF919F9176
S11319808F912F910F900FBE0F901F9018951F925B
S11319900F920FB60F9211242F933F934F935F939F
S11319A06F937F938F939F93AF93BF93CF93EF9353
S11319B0FF93C091C60080917801882349F08091FB
S11319C09B018F3F29F060E070E08C2F0E94CC0BCC
S11319D08091AD02803120F081E08093AC0218C088
S11319E0CD3009F4CAE0E0919B0281E08E0F809330
S11319F09B02F0E0E456FD4FC0838091AD028F5FFF
S1131A008093AD0280919B02803111F410929B026D
S1131A10FF91EF91CF91BF91AF919F918F917F9162
S1131A206F915F914F913F912F910F900FBE0F9047
S1131A301F90189594B1906B94B92C9A90E59CBD25
S1131A40883021F0803211F0823019F491E09DBD8C
S1131A5001C01DBC803269F028F4883071F08031F7
S1131A6061F00EC0803429F0803851F48CB5816067
S1131A708CBD8CB582608CBD03C08CB581608CBD7F
S1131A802C9808958EBD0DB407FEFDCF8EB5089534
S1131A909F938F937F936F9383EF91E09F938F93A3
S1131AA00E94E00F0F900F900F900F900F900F90E7
S1131AB008958EEE91E09F938F930E94E00F0F9014
S1131AC00F90089510928D0110928E0110928F0143
S1131AD01092900116BC8CE787BD82E084BD83E040
S1131AE085BDEEE6F0E080818260808385B38270FC
S1131AF085BB8FEF87B984E08AB908952FB7F8942E
S1131B0060918D0170918E0180918F01909190016F
S1131B1022230CF47894089510928B0181E0809331
S1131B208C011092860110927E0110927F01109216
S1131B308001109281010E947E0D60938701709351
S1131B4088018093890190938A01089580918B0183
S1131B500895CF92DF92EF92FF920F931F9380919B
S1131B60790181110EC00E947E0D609382017093F1
S1131B708301809384019093850181E080937901AE
S1131B8026C00E947E0DC0908201D0908301E09017
S1131B908401F090850100917E0110917F012091D4
S1131BA08001309181010C191D092E093F09DC01C6
S1131BB0CB01800F911FA21FB31F80937E019093CE
S1131BC07F01A0938001B0938101109279011F914C
S1131BD00F91FF90EF90DF90CF900895CF92DF9216
S1131BE0EF92FF920F931F93809179018823D9F08C
S1131BF00E947E0DC0908201D0908301E090840108
S1131C00F090850100917E0110917F012091800167
S1131C10309181010C191D092E093F09600F711FB4
S1131C20821F931F08C060917E0170917F01809193
S1131C308001909181011F910F91FF90EF90DF90AF
S1131C40CF9008951F920F920FB60F9211248F9286
S1131C509F92AF92BF92CF92DF92EF92FF922F9317
S1131C603F934F935F936F937F938F939F93AF9320
S1131C70BF93EF93FF9380918D0190918E01A0917A
S1131C808F01B09190010196A11DB11D80938D012A
S1131C9090938E01A0938F01B09390010E94EE0D5A
S1131CA060937A0170937B0180937C0190937D0112
S1131CB0C0907A01D0907B01E0907C01F0907D018E
S1131CC00E947E0D8090870190908801A0908901E8
S1131CD0B0908A0120918C01222309F4A9C0C80C78
S1131CE0D91CEA1CFB1CA7019601261B370B480BC9
S1131CF0590BDA01C901BA01A9014856554C6F4F75
S1131D007F4F51F481E080938B0118B85A988FE388
S1131D1088B910928C018CC020918601211140C099
S1131D206C017D0130EBC30E36E3D31EE11CF11CC4
S1131D3028E2C21623E2D206E104F10470F4CB01D6
S1131D40BA0128EE33E040E050E00E94310FF9017F
S1131D50E75BFE4F808188B96BC0AC01BD01485779
S1131D605C4E6F4F7F4F493853416105710538F41C
S1131D705A9A86E088B981E08093860159C08956D1
S1131D80954CAF4FBF4F873E9340A105B10508F076
S1131D904FC05A9A8FEB88B981E08093860148C07E
S1131DA020918601213009F043C06C017D0128E8AF
S1131DB0C20E23E1D21EE11CF11C39E8C31633E143
S1131DC0D306E104F104D0F418B85A98CB01BA014F
S1131DD028EE33E040E050E00E94310FCA01B9011F
S1131DE02AE030E040E050E00E94310FFB01E75B65
S1131DF0FE4F808188B9109286011AC08956954C8D
S1131E00AF4FBF4F873E9340A105B10588F418B882
S1131E105A98CB01BA0124E630E040E050E00E9439
S1131E20310FF901E75BFE4F808188B9109286017A
S1131E30FF91EF91BF91AF919F918F917F916F919E
S1131E405F914F913F912F91FF90EF90DF90CF9052
S1131E50BF90AF909F908F900F900FBE0F901F90E8
S1131E601895A1E21A2EAA1BBB1BFD010DC0AA1FC7
S1131E70BB1FEE1FFF1FA217B307E407F50720F0EF
S1131E80A21BB30BE40BF50B661F771F881F991F6A
S1131E901A9469F760957095809590959B01AC01B3
S1131EA0BD01CF010895052E97FB1EF400940E94F6
S1131EB06A0F57FD07D00E94310F07FC03D04EF480
S1131EC00C946A0F50954095309521953F4F4F4F94
S1131ED05F4F089590958095709561957F4F8F4FD2
S1131EE09F4F0895EE0FFF1F0590F491E02D099484
S1131EF097FB10F8169400080F93083098F00850D8
S1131F00232F342F452F562F672F782F892F902D6D
S1131F10F4CF059497958795779567955795479549
S1131F20379527950A95AAF70F9108950024A7FDE0
S1131F3000942A173005400550056005700580059A
S1131F4090050895CF93DF93EC012B8120FF33C0DC
S1131F5026FF0AC02F7B2B838E819F8101969F834E
S1131F608E838A8190E029C022FF0FC0E881F98125
S1131F708081082E000C990B009719F420622B83A2
S1131F801AC03196F983E8830EC0EA85FB8509956A
S1131F9097FF09C02B81019611F080E201C080E116
S1131FA0822B8B8308C02E813F812F5F3F4F3F835D
S1131FB02E83992702C08FEF9FEFDF91CF91089571
S1131FC0A0E0B0E0E6EEFFE00C94A512AE01495F9C
S1131FD05F4FDA016D917D91AD010EEA12E0F801D7
S1131FE082819381DC0113962C91139728601396B8
S1131FF02C930E940610D8011296ED91FC91139730
S11320002381277F2383E4E00C94C112ABE0B0E08A
S1132010ECE0F0E10C9497126C017B018A01FC0165
S113202017821682838181FFCCC1CE0101963C01C7
S1132030F6019381F70193FD859193FF81917F01CF
S1132040882309F4BAC1853239F493FD859193FF4D
S113205081917F01853229F4B60190E00E94FD113F
S1132060E7CF912C212C312CFFE1F315D8F08B32E2
S113207079F038F4803279F08332A1F4232D206191
S11320801DC08D3261F0803369F4232D216016C0A8
S1132090832D8260382EE32DE4603E2E2AC0F32D7A
S11320A0F8601DC037FC2DC020ED280F2A3040F009
S11320B08E32B9F436FC81C1232D2064322E19C02E
S11320C036FE06C08AE0989E200D1124922E11C07F
S11320D0EAE02E9E200D1124222EF32DF0623F2ED5
S11320E008C08C3621F4832D8068382E02C08836CF
S11320F041F4F70193FD859193FF81917F01811153
S1132100B3CF982F9F7D9554933028F40C5F1F4FC5
S11321109FE399830DC0833631F0833771F08335A3
S113212009F059C021C0F801808189830E5F1F4FD7
S113213088248394912C530113C02801F2E04F0E9C
S1132140511CF801A080B18036FE03C0692D70E0F7
S113215002C06FEF7FEFC5010E94F2114C018201B2
S1132160F32DFF773F2E16C0280122E0420E511CAA
S1132170F801A080B18036FE03C0692D70E002C072
S11321806FEF7FEFC5010E94E7114C01F32DF0685A
S11321903F2E820133FC1BC0822D90E088169906E5
S11321A0B0F4B60180E290E00E94FD112A94F4CFCD
S11321B0F50137FC859137FE81915F01B60190E00E
S11321C00E94FD1121102A9421E0821A91088114A1
S11321D0910471F7E8C0843611F0893641F5F801AD
S11321E037FE07C060817181828193810C5F1F4F2C
S11321F008C060817181072E000C880B990B0E5F5B
S11322001F4FF32DFF763F2E97FF09C090958095C1
S1132210709561957F4F8F4F9F4FF0683F2E2AE056
S113222030E0A3010E943912882E861845C08537F4
S113223031F4232D2F7EB22E2AE030E025C0932DD9
S1132240997FB92E8F36C1F018F4883579F0B5C06E
S1132250803719F0883721F0B0C0E92FE061BE2E35
S1132260B4FE0DC0FB2DF460BF2E09C034FE0AC0BD
S1132270292F2660B22E06C028E030E005C020E1F8
S113228030E002C020E132E0F801B7FE07C060810F
S11322907181828193810C5F1F4F06C060817181BF
S11322A080E090E00E5F1F4FA3010E943912882E38
S11322B08618FB2DFF773F2E36FE0DC0232D2E7F73
S11322C0A22E891458F434FE0BC032FC09C0832DAD
S11322D08E7EA82E05C0B82CA32C03C0B82C01C038
S11322E0B92CA4FE0FC0FE01E80DF11D80818033DE
S11322F021F49A2D997EA92E09C0A2FE06C0B3949A
S1132300B39404C08A2D867809F0B394A3FC11C059
S1132310A0FE06C0B21488F4280C922C9B180EC0A0
S1132320B21460F4B60180E290E00E94FD11B3940F
S1132330F7CFB21418F42B1802C0982C212CA4FE49
S113234010C0B60180E390E00E94FD11A2FE17C008
S1132350A1FC03C088E790E002C088E590E0B601E4
S11323600CC08A2D867859F0A1FE02C08BE201C010
S113237080E2A7FC8DE2B60190E00E94FD11891471
S113238038F4B60180E390E00E94FD119A94F7CFEF
S11323908A94F301E80DF11D8081B60190E00E945A
S11323A0FD118110F5CF222009F442CEB60180E25E
S11323B090E00E94FD112A94F6CFF6018681978160
S11323C002C08FEF9FEF2B96E2E10C94B312FC0155
S11323D00590615070400110D8F7809590958E0F4C
S11323E09F1F0895FC016150704001900110D8F7BF
S11323F0809590958E0F9F1F08950F931F93CF93F1
S1132400DF93FB01238121FD03C08FEF9FEF2CC0DD
S113241022FF16C046815781248135814217530714
S113242044F4A081B1819D012F5F3F4F318320830C
S11324308C93268137812F5F3F4F3783268314C0C7
S11324408B01EC01FB010084F185E02D0995892BBA
S1132450E1F6D80116968D919C91179701961796DF
S11324609C938E931697CE01DF91CF911F910F917C
S11324700895FA01AA27283051F1203181F1E89416
S11324806F936E7F6E5F7F4F8F4F9F4FAF4FB1E063
S11324903ED0B4E03CD0670F781F891F9A1FA11D5E
S11324A0680F791F8A1F911DA11D6A0F711D811D5F
S11324B0911DA11D20D009F468943F912AE0269F24
S11324C011243019305D3193DEF6CF010895462F83
S11324D04770405D4193B3E00FD0C9F7F6CF462F64
S11324E04F70405D4A3318F0495D31FD40524193CD
S11324F002D0A9F7EACFB4E0A6959795879577958A
S11325006795BA95C9F700976105710508959B0110
S1132510AC010A2E06945795479537952795BA9599
S1132520C9F7620F731F841F951FA01D08952F9272
S11325303F924F925F926F927F928F929F92AF924F
S1132540BF92CF92DF92EF92FF920F931F93CF939C
S1132550DF93CDB7DEB7CA1BDB0B0FB6F894DEBF33
S11325600FBECDBF09942A88398848885F846E8459
S11325707D848C849B84AA84B984C884DF80EE80A3
S1132580FD800C811B81AA81B981CE0FD11D0FB6AC
S1132590F894DEBF0FBECDBFED010895F894FFCFD0
S11325A00FDF0F010204080F000000030000000009
S11325B0CC0B040C00002000F8789CF19C1DF6E67E
S11325C098C118C398C118C31C0EC7E1707038387D
S11325D0C7C3070F0F0F0F0F46524F4747455220EF
S11325E03435323538383339003F065B4F666D7DFC
S10725F0077F6F00EE
S9030000FC
